:08000000803102288731F92F3D
:100E1000790190110800873108278731080079018E
:100E2000120E890C01390800790192171914121752
:100E30000800790119101213921308007108F900C3
:100E40007008F8000800873147278731262F803146
:100E50000228603045018D008F019101053093001B
:100E600092010800730879019700720896007108D2
:100E7000940070089300080041010C100B1400301E
:100E8000F0000030F10087311E27873108008731DC
:100E90002927873187315A2787318731C027873102
:100EA00087319627873187310B27873187313C2758
:100EB000873108004A018C130030F4000830F50037
:100EC00087317627873107304A01950099019801CB
:100ED00097019601410113101D1093109D101311DD
:100EE0001D1193119D114A018C1708007408663E6C
:100EF000F6000030753DF7007508F1007408F00049
:100F00007708F3007608F20087313227873187317E
:100F10001427873187310F278731003A031D912F1E
:100F2000922F8A2F87311927873108007901A5016F
:100F30000730A6000730A7002508F3390838A500B8
:100F4000A401A301A201D530A100F330A505A4019D
:100F5000A301A201A101A0019F019E019D01FF30FB
:100F60009700FF309600940193019A0141018D1082
:100F700097100D1117117901A5011030920008008A
:100F80004001980199019A0137309200F0309300A6
:100F9000F830940037307D018C00F0309600F0304E
:100FA000A0008D0197010830A1008E019801A201D7
:100FB00037308F00F0309900FF30A3003F309000B1
:100FC000F0309A00F030A40013307C01D7002430B8
:100FD0007B019E0025309D0026309C007D01910103
:100FE000920193019B019C019D01A501A601A7010E
:100FF0000800F801F901FA01FB0140018731232FB4
:101000001E00E2012020000000000000000000009F
:101010000000000000000000000045011428A20AA2
:10102000B8308209202C0000000000000000000001
:10103000000000000A00400D0A2800000000000027
:1010400000000000000000000000000000000000A0
:101050000000000000000000000000000000000090
:1010600014294001001400000000000000000000EE
:101070000000000000000000000000000000000070
:1010800000000000000000000000400114284001A2
:101090000000000000000000000000000000000050
:1010A00000000000000000000000C001E1031F3C40
:1010B000E1031F3CF0011F3EE0031F3EE1031F3C24
:0C10C00080000008000000000038000064
:020000040001F9
:0A000E008C3FFF3F9F3FFF3FFF3F85
:00000001FF
